:020000040800F2
:10000000D8060020B5010008BD17000899130008A4
:10001000B917000871020008D1170008000000009D
:10002000000000000000000000000000C5170008EC
:100030004D06000800000000C1170008C91700089D
:10004000CF010008CF010008CF010008CF01000850
:10005000CF010008CF010008CF010008CF01000840
:10006000CF010008CF010008CF010008CF01000830
:10007000CF010008CF010008CF010008CF01000820
:10008000CF010008CF010008CF010008CF01000810
:10009000CF010008CF010008CF010008CF01000800
:1000A000CF010008CF010008CF010008CF010008F0
:1000B000CF010008CF010008CF010008CF010008E0
:1000C000CF010008CF010008CF010008CF010008D0
:1000D000CF010008CF010008CF010008CF010008C0
:1000E000CF010008CF010008CF01000800F002F89E
:1000F00000F050F814A696E8000CB244B344DA4578
:1001000001D100F047F8BAE80F000FA696E83000DA
:10011000A5EB040504EB0607AAEB0704A7F101070A
:100120004FEA15154FEA3414A4F10104AC4201D38F
:1001300000F030F813F0010F18BFFB1A43F0010371
:1001400000F001F8DBE71847B8170000D8170000E7
:10015000103A24BF78C878C1FAD8520724BF30C8F3
:1001600030C144BF04680C60704700007047000055
:100170000023002400250026103A28BF78C1FBD8B0
:10018000520728BF30C148BF0B6070471FB51FBD65
:1001900010B510BD00F031F81146FFF7F7FF01F080
:1001A00019FB00F04FF803B4FFF7F2FF03BC00F0B7
:1001B00057F800000948804709480047FEE7FEE776
:1001C000FEE7FEE7FEE7FEE7FEE7FEE7FEE7FEE707
:1001D00004480549054A064B70470000CD17000842
:1001E000ED000008D8000020D8060020D80200202A
:1001F000D8020020704770477047754600F02CF811
:10020000AE4605006946534620F00700854618B003
:1002100020B5FFF7DDFFBDE820404FF000064FF0AE
:1002200000074FF000084FF0000BAC46ACE8C009E7
:10023000ACE8C009ACE8C009ACE8C00921F007018E
:100240008D46704710B50446AFF300802046BDE8E8
:100250001040FFF7A8BF00000048704710000020C2
:1002600001491820ABBEFEE72600020070470000DF
:10027000FEE700002DE9F04182B0044608982160B5
:10028000A07140F60640C2F61400C4F8070008202A
:10029000E07232202271637100F0DAF9E07A3825D9
:1002A000002808BF30252E1D012038278DF8046056
:1002B00000F0CEF901208DF805508DF8066000F0B1
:1002C000C7F9206821794FF47A7801AA04238DF8C0
:1002D0000750CDF8008000F08FFBE07A3826002828
:1002E00008BF3026351D01208DF8045000F0B0F90C
:1002F00001208DF805608DF8065000F0A9F92068FE
:10030000217901AA04238DF80760CDF8008000F060
:1003100073FB052000F09CF9E07A2825002808BF2F
:10032000302707F1040008BF20258DF804000120C4
:10033000282600F08DF9281D8DF8060001208DF883
:10034000057000F085F92068217901AA04238DF851
:100350000750CDF8008000F04FFB052000F078F941
:10036000E07A2825002818BF012008BF2025C700F3
:10037000281D8DF80400012000F06AF9381D8DF861
:10038000060001208DF8055000F062F920682179FF
:1003900001AA04238DF80770CDF8008000F02CFB33
:1003A000052000F055F9E079E27A010120F00F050F
:1003B00001F10807002A14BF08350701281D8DF830
:1003C0000400012000F044F9381D8DF806000120DA
:1003D0008DF8055000F03CF92068217901AA04232A
:1003E0008DF80770CDF8008000F006FB207AE27AE5
:1003F000010120F00F0501F10807002A14BF08359C
:100400000701281D8DF80400012000F021F9381D96
:100410008DF8060001208DF8055000F019F92068CC
:10042000217901AA04238DF80770CDF8008000F02F
:10043000E3FA607AE27A010120F00F0501F1080782
:10044000002A14BF08350701281D8DF8040001207B
:1004500000F0FEF8381D8DF8060001208DF80550DB
:1004600000F0F6F82068217901AA04238DF80770BE
:10047000CDF8008000F0C0FAA07AE27A010120F005
:100480000F0501F10807002A14BF08350701281DD0
:100490008DF80400012000F0DBF8381D8DF806000F
:1004A00001208DF8055000F0D3F82068217901AAC9
:1004B00004238DF80770CDF8008000F09DFAE07AF3
:1004C0001827002818BF01204FEAC00505F10400D5
:1004D00008BF10278DF80400012000F0B9F8381D7E
:1004E0008DF8060001208DF8055000F0B1F8206865
:1004F000217901AA04238DF80770CDF8008000F05F
:100500007BFAE07A00280CBF20260120C500281DB8
:100510008DF80400012000F09BF8301D8DF80600D6
:1005200001208DF8055000F093F82068217901AA88
:1005300004238DF80760CDF8008000F05DFA02B06A
:10054000BDE8F08170B582B004464079A379884255
:1005500098BF411E934298BF5A1ED0B2032805D8B7
:10056000DFE800F009020608403104E0002102E063
:10057000143100E054310A01E37A01F0700002F115
:1005800008056FF07702002B08BF6FF07F0202EBC7
:10059000000606F1040008BF0D018DF804000120DB
:1005A00000F056F8281D8DF8060001208DF8056032
:1005B00000F04EF8206821794FF47A7601AA0423DE
:1005C0008DF80750009600F017FA02B070BD0000D9
:1005D0000A78002A08BF70472DE9F04782B08246AA
:1005E0004E1E4FF47A780DF1040900BF11019AF8FC
:1005F0000B3022F00F0001F10807002B14BF083068
:100600001701451C05308DF8040001207C1C00F00A
:100610001FF8781D8DF8060001208DF8055000F0B8
:1006200017F8DAF800009AF804104A4604238DF807
:100630000740CDF8008000F0DFF9B2780136002ADB
:10064000D4D102B0BDE8F047704700007047000009
:10065000B0B5044600F018F9054640F20000C2F2B9
:1006600000000078611C18BF044400BF00F00CF9C2
:10067000401BA042FAD3B0BD2DE9F04F82B00E6806
:10068000002E00F0FD8041F20042C4F2010204237A
:1006900040F2004E904208BF03234FF6FF7CC4F2A5
:1006A000010E009300240123C1F2100C4FF0000A48
:1006B0004FF0000944E000BF012704F00C030F22B3
:1006C0009A402BEA020207FA03F34FEA9A051A430B
:1006D00046F825204E6840F20C45F202DEF808206C
:1006E00054BF22EA080242EA0802C4F20105CEF829
:1006F00008202A68B30254BF22EA080242EA08022C
:100700002A60B303DEF8042054BF22EA080242EA5A
:100710000802F303CEF80420DEF800204FF00103B6
:1007200054BF22EA080242EA0802CEF800200E680E
:100730000AF1010A36FA0AF204F1040400F0A0807A
:1007400003FA0AFB16EA0B08F1D04E68664511DC85
:10075000122E55D8DFE806F0340A44485454545455
:100760005454545454545454544C5000D1F80C9094
:1007700046E000BF4FF6FF72C1F2210296420FDC45
:100780000022C1F2110296421AD00022C1F21202D6
:10079000964215D00022C1F22102964210D02FE0DD
:1007A0000022C1F2220296420AD00022C1F2310296
:1007B000964205D00022C1F23202964220D100BFFB
:1007C0008A684AB1012A14BFC0F814B0C0F810B04A
:1007D0004FF0080914E000BF4FF0040910E000BF1B
:1007E000CA6802F108090BE04FF0000908E000BFF9
:1007F000CA6802F1040903E0CA6802F10C0900BFEB
:1008000022460646B8F5807F24BF203A0436376872
:100810000F25954027EA050509FA02F22A433260BE
:10082000CA79D2067FF583AF41F21803C4F20203FE
:100830001A68AEF57E7642F001021A601A6802F07C
:1008400001020192019A2AF0030256F802B040F622
:100850000002C4F20102904210D040F60042C4F2FD
:10086000010290423FF428AF41F20002C4F20102BB
:10087000009F904208BF02271FE700BF00271CE728
:1008800002B0BDE8F08F000040F2D000C2F20000DC
:1008900000687047002804BF01207047F0B581B0A0
:1008A000044690F83D0028B9002084F83C0020461A
:1008B00000F090F9242084F83D002068016821F0C0
:1008C00001010160016841F400410160016821F407
:1008D0000041016000F036FB636848F2A16CC0F291
:1008E000010C40F60011C0F23D0163453CBF48F2E7
:1008F0008041C0F21E01884202D2012001B0F0BD49
:100900004DF68361C4F21B31A0FB01122168970CE4
:10091000D1F804E04FF496762EF03F0545EA924573
:100920004D60774348F638160D6AC0F24106A7FBC2
:10093000067625F03F07634538BF960C721C3A4394
:100940000A62CA6948F2A0664CF6FF77C0F2010657
:10095000B34222EA07020BD801385B00B0FBF3F088
:1009600001306FF31F30042898BF04201BE000BF44
:10097000A768013857B119277B43B0FBF3F001306A
:100980006FF31F3070B100F5804007E003EB4303C5
:10099000B0FBF3F001306FF31F3018B100F50040E9
:1009A00001E000BF01201043C8610868D4E90723B3
:1009B00020F0C000104318430860886848F2FF32F6
:1009C00004F10C0790438CCF18431043A66988604C
:1009D000C86820F0FF0038433043C860086840F022
:1009E0000100086000202021206484F83D1020636D
:1009F00084F83E0001B0F0BD2DE9F04383B01E46FF
:100A0000174689460446FFF73FFF94F83D1020291A
:100A100024D10546206800BF816989071AD5FFF7F0
:100A200033FF411B20681A29F6D381698907F3D562
:100A300000202021206384F83D1084F83E00216CC2
:100A400041F02001216484F83C00022003B0BDE89D
:100A5000F08300BF94F83C10012903D1022003B0B9
:100A6000BDE8F083012184F83C100168C90703D177
:100A7000016841F001010160016840F2020821F4BF
:100A800000610160212184F83D10102184F83E109E
:100A90000021216467626685618DC0F201082185AD
:100AA000A8F10211E162E16A0A9E11F5803F18BFC8
:100AB00001291DD1016841F48071016020464FF089
:100AC000011100223346009500F0C6FC50B12068A9
:100AD0000068C00544BF4FF400702064012003B0DB
:100AE000BDE8F0832069B0F5804F07D1FE2015E006
:100AF0000829DFD0216B1229DCD0DFE7062000EACD
:100B0000D9102168F030086108F10601204632460C
:100B10002B4600F087FD0028E0D1FF20216800EA85
:100B2000090008612046414632462B4600F07AFD16
:100B30000028D3D100200290206841690291806989
:100B40000290029806E000BF204631462A4600F097
:100B500025FC18BB208D68B3204631462A4600F09C
:100B6000CDFDD8B9606A2168024612F8013B0B61DD
:100B70006262628D013A6285228D531E23854F6920
:100B80007F07E1D51B04DFD0437802300B61606240
:100B9000608D01386085901E2085D5E7206C042883
:100BA0009CD12068016841F400710160012003B00C
:100BB000BDE8F0832068016841F4007101602020E5
:100BC00084F83D00002084F83E0084F83C0003B027
:100BD000BDE8F08310B586B045F200410068C4F26C
:100BE000000100228842049202D006B010BD00BF6E
:100BF00041F21804C4F20204206840F008002060AA
:100C0000206800F0080001900198C0200290122096
:100C100003900320059001F5384002A9FFF72CFD51
:100C2000606840F400106060606800F4001001909B
:100C3000019806B010BD000040F2000040F2D00163
:100C4000C2F20000C2F2000100780A681044086095
:100C50007047000080B542F20000C4F20200016853
:100C600041F010010160032000F07AF80F2000F03D
:100C700005F800F027F8002080BD000070B540F2B4
:100C80000006C2F2000640F208013278C2F200010A
:100C90004FF47A730968B3FBF2F20446B1FBF2F148
:100CA000084600F063FB0F2C4FF0010508D838B957
:100CB0004FF0FF3021460022002500F025F8746037
:100CC000284670BD82B041F21800C4F202000168EB
:100CD000022241F001010160016801F0010101916E
:100CE0000199416841F080514160406800F08050B6
:100CF000009000980420C4F20100016862F31A61B8
:100D0000016002B07047000010B54EF60C5CCEF2E8
:100D1000000CDCF80030C3F3022E8EF00704042C24
:100D200028BF0424BEF103034FF0FF3E0EFA04F483
:100D300038BF0023A14399400EFA03F39A431143AD
:100D400000F00F0200F160430901043A03F5644327
:100D50006244002848BF02F10C03197010BD000066
:100D60004EF60C51CEF200010A684FF6FF031A400E
:100D700060F30A2242F0806040F0FD700860704726
:100D8000002804BF012070472DE9F04381B042F2F2
:100D90000008C4F202080446D8F800000D4600F02E
:100DA000070088420CD2D8F8000020F00700284342
:100DB000C8F80000D8F8000000F00700A8426CD185
:100DC000206841F204098107C4F2020917D54107DE
:100DD00005D5D9F8001041F4E061C9F80010010709
:100DE00005D5D9F8001041F46051C9F80010D9F8C0
:100DF0000010A26821F0F0011143C9F80010C007EB
:100E000042D1D8F8000000F00700A8420CD9D8F869
:100E1000000020F007002843C8F80000D8F80000C0
:100E200000F00700A84238D12068410707D5D9F85B
:100E30000010E26821F4E0611143C9F800100007D6
:100E400008D5D9F80000216920F4605040EAC100BB
:100E5000C9F80000D9F8002002F00C00082841F27F
:100E60000020C0F27A0051D141F6EE03C2F3834173
:100E7000C0F60003595CD2033CD440F60010C0F227
:100E80003D00484342E000BF606802280AD00128C4
:100E90002AD159F8041C890308D4012001B0BDE807
:100EA000F08300BF59F8041C8901F6D5D9F8001069
:100EB00021F003010843C9F80000FFF7E5FC0646EE
:100EC00041F28837D9F80000616800F00C00B0EBFF
:100ED000810F96D0FFF7D8FC801BB842F2D90320CF
:100EE00001B0BDE8F08300BF59F8041C8907D4D5D0
:100EF000DCE700BFD9F8002041F6EC03C2F3404222
:100F0000C0F600039A5C4843B0FBF2F0D9F8001039
:100F100041F6D402C1F30311C0F60002515C40F265
:100F2000080220FA01F140F20400C2F20000006859
:100F3000C2F200021160FFF7A1FE002001B0BDE87F
:100F4000F083000040F2080041F20401C2F2000008
:100F5000C4F202010068096841F6E402C1F302210B
:100F6000C0F60002515CC84070470000002804BF72
:100F7000012070472DE9F04182B00446007841F22B
:100F80000006C007C4F202060CD0706800F00C0026
:100F9000042840F081803068800303D56068002811
:100FA00000F04E81207880071BD5706810F00C0F80
:100FB00009D0706800F00C00082840F08B80706841
:100FC000C00300F187803068800703D520690128BD
:100FD00040F036813068616920F0F80040EAC100D5
:100FE00030602078000713D4207840072CD4E569BE
:100FF000002D00F02081706800F00C00082840F0FF
:10100000AF80012D40F00C81012002B0BDE8F081DD
:10101000A069002800F08C800020C4F24220012149
:10102000C0F88014FFF730FC054600BF706A8007E7
:1010300000F1BA80FFF728FC401B0228F6D90320F4
:1010400002B0BDE8F08100BFF0695FEAC00808D4D3
:10105000F06940F08050F061F06900F0805000903D
:10106000009847F20007C4F200073868C0054DD465
:10107000386840F480703860FFF706FC054600BF12
:101080003868C00542D4FFF7FFFB401B6428F7D93E
:10109000032002B0BDE8F081706800F00C00082861
:1010A00003D17068C0033FF576AF6068002800F098
:1010B0000981B0F5A02F00F01D81B0F5803F00F050
:1010C0001D81306820F480303060306820F480204A
:1010D00017E100BF2069002840F20000C4F242205E
:1010E00000F08C8001210160FFF7CEFB054600BFB8
:1010F000306880073FF56EAFFFF7C6FB401B022844
:10110000F6D9032002B0BDE8F08100BFE0680028F6
:1011100000F09A80052800F0B180012800F0B2802C
:10112000306A20F001003062306A20F00400ACE048
:101130000020C4F242200021C0F88014FFF7A4FB75
:10114000054600BF706A80077FF54EAFFFF79CFB36
:10115000401B0228F6D9032002B0BDE8F08100BF91
:101160000027C4F2422700203866FFF78DFB022DCE
:1011700005460DD13068800140F1D680FFF784FB31
:10118000401B02284FF00300F4D902B0BDE8F08103
:10119000306880014FD5FFF777FB401B02284FF0E6
:1011A0000300F5D9F1E700BF40F20800C2F20000E9
:1011B000006844F6D351C1F26201A0FB0101480A64
:1011C000019000BF00BF0198411E002801913FF42B
:1011D0000BAF00BF0198411E002801913FF404AFFE
:1011E00000BF0198411E002801913FF4FDAE00BFF1
:1011F0000198411E00280191E4D1F5E6002101602B
:10120000FFF742FB054600BF306880077FF5E9AE77
:10121000FFF73AFB401B02284FF00300F4D9B4E774
:101220007068216A00F480328A4209D1616A00F450
:101230007010884204D1002002B0BDE8F08100BFE8
:10124000012002B0BDE8F081306A20F00100306278
:10125000306A20F004003062FFF716FB054641F2C9
:10126000883700BF306A800722D5FFF70DFB401B8F
:10127000B8424FF00300F5D987E700BF306A40F06D
:1012800004003062306A40F001003062FFF7FCFA7F
:10129000054641F2883700BF306A800708D4FFF75F
:1012A000F3FA401BB842F7D9032002B0BDE8F08141
:1012B000B8F1000F3FF59BAEF06920F08050F0616F
:1012C00095E600BF306820F480303060306820F44C
:1012D00080203060FFF7D8FA054600BF30688003F1
:1012E0007FF560AEFFF7D0FA401B64284FF0030093
:1012F000F4D94AE7306840F480203060306840F428
:1013000080303060FFF7C0FA054600BF30688003C8
:101310003FF548AEFFF7B8FA401B6428F6D9032022
:1013200002B0BDE8F08100BF206AB0F5803F05D172
:101330007168A26821F40031114371607168626ABA
:1013400021F4741111430843706001203866FFF7DF
:101350009BFA0446306880013FF56DAFFFF794FAC1
:10136000001B02284FF00300F4D90EE7411E0020B5
:10137000B0EB116F1CBF012070474EF21002CEF28D
:10138000000251604EF62351CEF20001F0230B70A3
:101390000721906011607047FEE7000070B5036898
:1013A000044653F8140F400711D40E46481C29D0A8
:1013B00086BB00BF1868400527D4FFF765FA23688D
:1013C00053F8140F400737D518684007F2D50020AE
:1013D00070BD00BF18684007F9D41868400514D4E0
:1013E00018684007F3D4186840050ED41868400701
:1013F000EDD41868400508D4186840074FF0000085
:1014000048BF70BD18684005E4D56FF4806018606F
:10141000042012E0154603E053F8140F4007D6D419
:1014200018684005F1D4FFF72FFA401B2368B0423B
:10143000F2D958694007EFD42020002120222163EF
:1014400084F83D2084F83E10226C10432064012073
:1014500084F83C1070BD00002DE9F041054600689D
:101460001E46144601F47F0201338FB242D0DDF8EC
:101470001880B2F5803F40F0878040693840C01B3B
:10148000B0FA80F04009A04240F0C8804EB924E094
:1014900040693840C01BB0FA80F04009A04240F0DB
:1014A000BD80FFF7F1F9A0EB08012868B142EFD940
:1014B00041693940C91BB1FA81F14909A142E7D11B
:1014C0009BE000BF40693840C01BB0FA80F0400983
:1014D000A0424FF0000040F0A280FFF7D5F9286845
:1014E00041693940C91BB1FA81F14909A142E9D1E9
:1014F00083E000BFB2F5803F24D100BF416939408D
:10150000C91BB1FA81F14909A14240F087804169C4
:101510003940C91BB1FA81F14909A14240F07E80EE
:1015200041693940C91BB1FA81F14909A14275D11C
:1015300041693940C91BB1FA81F14909A142DDD0A5
:101540006CE000BF81693940C91BB1FA81F14909DA
:10155000A14263D181693940C91BB1FA81F14909BE
:10156000A1425BD181693940C91BB1FA81F14909B6
:10157000A14253D181693940C91BB1FA81F14909AE
:10158000A142DFD04AE000BF80693840C01BB0FAFA
:1015900080F04009A04241D146B923E0806938403B
:1015A000C01BB0FA80F04009A04237D1FFF76CF9B8
:1015B000A0EB08012868B142F0D981693940C91B04
:1015C000B1FA81F14909A142E8D116E080693840B9
:1015D000C01BB0FA80F04009A0424FF0000018BFD5
:1015E000BDE8F081FFF750F9286881693940C91BCF
:1015F000B1FA81F14909A142E8D1002020212863F4
:1016000085F83D1085F83E00296C41F020012964E1
:1016100085F83C000120BDE8F08100BF0020BDE856
:10162000F0810000F0B581B0044600681D464369B2
:101630008FB203EA0701B94202D1002001B0F0BD28
:101640004169164601323FD049053FD4CEB100BFB3
:10165000FFF71AF9411B2068B14203D941693940AB
:10166000B94215D141693940B942E6D041694905CD
:10167000EED52BE041693940B942DED041694905D8
:1016800024D4FFF701F9206841693940B942F1D00B
:10169000202023E041693940B942CED04169490553
:1016A00014D441693940B942C7D0416949050DD4C4
:1016B00041693940B942C0D04169490506D4416900
:1016C0003940B942B9D041694905E3D5016841F4CF
:1016D000007101606FF480614161042000212022CB
:1016E000216384F83D2084F83E10226C104320646E
:1016F00084F83C10012001B0F0BD000070B5036813
:10170000044653F8140F000611D40E46481C29D085
:1017100086BB00BF1868400527D4FFF7B5F82368DB
:1017200053F8140F000637D518680006F2D50020CC
:1017300070BD00BF18680006F9D41868400514D4BD
:1017400018680006F3D4186840050ED4186800061F
:10175000EDD41868400508D4186800064FF0000062
:1017600048BF70BD18684005E4D56FF4806018600C
:10177000042012E0154603E053F8140F0006D6D4F7
:1017800018684005F1D4FFF77FF8401B2368B0428A
:10179000F2D958690006EFD42020002120222163CD
:1017A00084F83D2084F83E10226C10432064012010
:1017B00084F83C1070BD0000FEE70000FEE700006A
:1017C0007047000070470000FFF736BA704700000E
:1017D000FEE7000090B0FFF73DFA00240120CDE9BC
:1017E0000B44CDE9094406900A904FF4E0104FF401
:1017F000803102250F9006A8CDE90714CDE90D51DF
:10180000FFF7B4FB20B1EFF3108072B6FEE700BF24
:101810000F20CDE901054FF48060CDE9040401A853
:1018200002210394FFF7ACFA20B1EFF3108072B6F7
:10183000FEE700BF41F21800C4F20200016840F266
:10184000700441F0200101600168C2F2000401F05F
:101850002001069106990168002241F0080101600B
:10186000006845F2004100F0080006900698C4F2B6
:101870000001204640F80C1F48F2A061C0F20101AF
:101880004FF48043C0E90112C0E90323C0E90522F7
:10189000C0E90722FEF7FEFF20B1EFF3108072B619
:1018A000FEE700BF022504F10C0120462722102389
:1018B0000095FEF7DFFC05A5204600210022FEF77B
:1018C00041FE20462946FEF783FEF5E753544D338B
:1018D00032000000000000000000000001020304CC
:1018E00006070809000000000102030401020203C8
:1018F0000405060708090A0B0C0D0E0F1010000056
:10190000201900080000002010000000500100080D
:101910003019000810000020C806000070010008FF
:1019200001000000100000000024F400000000008E
:04000005080000ED02
:00000001FF
