:020000040800F2
:10000000D0060020B5010008311B00088912000845
:100010002D1B000871020008451B000800000000AD
:10002000000000000000000000000000391B000874
:100030007502000800000000351B00083D1B000889
:10004000CF010008CF010008CF010008CF01000850
:10005000CF010008CF010008CF010008CF01000840
:10006000CF010008CF010008CF010008CF01000830
:10007000CF010008CF010008CF010008CF01000820
:10008000CF010008CF010008CF010008CF01000810
:10009000CF010008CF010008CF010008CF01000800
:1000A000CF010008CF010008CF010008CF010008F0
:1000B000CF010008CF010008CF010008CF010008E0
:1000C000CF010008CF010008CF010008CF010008D0
:1000D000CF010008CF010008CF010008CF010008C0
:1000E000CF010008CF010008CF01000800F002F89E
:1000F00000F050F814A696E8000CB244B344DA4578
:1001000001D100F047F8BAE80F000FA696E83000DA
:10011000A5EB040504EB0607AAEB0704A7F101070A
:100120004FEA15154FEA3414A4F10104AC4201D38F
:1001300000F030F813F0010F18BFFB1A43F0010371
:1001400000F001F8DBE71847341B0000541B0000E7
:10015000103A24BF78C878C1FAD8520724BF30C8F3
:1001600030C144BF04680C60704700007047000055
:100170000023002400250026103A28BF78C1FBD8B0
:10018000520728BF30C148BF0B6070471FB51FBD65
:1001900010B510BD00F031F81146FFF7F7FF01F080
:1001A000D3FC00F04FF803B4FFF7F2FF03BC00F0FC
:1001B00057F800000948804709480047FEE7FEE776
:1001C000FEE7FEE7FEE7FEE7FEE7FEE7FEE7FEE707
:1001D00004480549054A064B70470000411B0008CA
:1001E000ED000008D0000020D0060020D002002042
:1001F000D0020020704770477047754600F02CF819
:10020000AE4605006946534620F00700854618B003
:1002100020B5FFF7DDFFBDE820404FF000064FF0AE
:1002200000074FF000084FF0000BAC46ACE8C009E7
:10023000ACE8C009ACE8C009ACE8C00921F007018E
:100240008D46704710B50446AFF300802046BDE8E8
:100250001040FFF7A8BF00000048704710000020C2
:1002600001491820ABBEFEE72600020070470000DF
:10027000FEE7000070470000B0B5044600F018F932
:10028000054640F20000C2F200000078611C18BF71
:10029000044400BF00F00CF9401BA042FAD3B0BDEB
:1002A0002DE9F04F82B00E68002E00F0FD8041F283
:1002B0000042C4F20102042340F2004E904208BF03
:1002C00003234FF6FF7CC4F2010E009300240123A8
:1002D000C1F2100C4FF0000A4FF0000944E000BFDB
:1002E000012704F00C030F229A402BEA020207FABE
:1002F00003F34FEA9A051A4346F825204E6840F268
:100300000C45F202DEF8082054BF22EA080242EA55
:100310000802C4F20105CEF808202A68B30254BFCF
:1003200022EA080242EA08022A60B303DEF8042047
:1003300054BF22EA080242EA0802F303CEF804207E
:10034000DEF800204FF0010354BF22EA080242EA1F
:100350000802CEF800200E680AF1010A36FA0AF205
:1003600004F1040400F0A08003FA0AFB16EA0B086B
:10037000F1D04E68664511DC122E55D8DFE806F044
:10038000340A4448545454545454545454545454B3
:10039000544C5000D1F80C9046E000BF4FF6FF726D
:1003A000C1F2210296420FDC0022C1F211029642F4
:1003B0001AD00022C1F21202964215D00022C1F2D8
:1003C0002102964210D02FE00022C1F22202964272
:1003D0000AD00022C1F23102964205D00022C1F2B9
:1003E0003202964220D100BF8A684AB1012A14BF66
:1003F000C0F814B0C0F810B04FF0080914E000BF06
:100400004FF0040910E000BFCA6802F108090BE0D0
:100410004FF0000908E000BFCA6802F1040903E0D8
:10042000CA6802F10C0900BF22460646B8F5807F73
:1004300024BF203A043637680F25954027EA050582
:1004400009FA02F22A433260CA79D2067FF583AFF5
:1004500041F21803C4F202031A68AEF57E7642F048
:1004600001021A601A6802F001020192019A2AF050
:10047000030256F802B040F60002C4F201029042B4
:1004800010D040F60042C4F2010290423FF428AF7F
:1004900041F20002C4F20102009F904208BF02270D
:1004A0001FE700BF00271CE702B0BDE8F08F000087
:1004B00040F2CC00C2F2000000687047002804BF80
:1004C00001207047F0B581B0044690F83D0028B98E
:1004D000002084F83C00204600F0F4FA242084F840
:1004E0003D002068016821F001010160016841F4CC
:1004F00000410160016821F40041016000F09AFCB4
:10050000636848F2A16CC0F2010C40F60011C0F221
:100510003D0163453CBF48F28041C0F21E01884264
:1005200002D2012001B0F0BD4DF68361C4F21B314F
:10053000A0FB01122168970CD1F804E04FF49676E5
:100540002EF03F0545EA92454D60774348F6381650
:100550000D6AC0F24106A7FB067625F03F0763450A
:1005600038BF960C721C3A430A62CA6948F2A06608
:100570004CF6FF77C0F20106B34222EA07020BD81D
:1005800001385B00B0FBF3F001306FF31F3004283B
:1005900098BF04201BE000BFA768013857B1192796
:1005A0007B43B0FBF3F001306FF31F3070B100F507
:1005B000804007E003EB4303B0FBF3F001306FF33F
:1005C0001F3018B100F5004001E000BF01201043CA
:1005D000C8610868D4E9072320F0C000104318431D
:1005E0000860886848F2FF3204F10C0790438CCF12
:1005F00018431043A6698860C86820F0FF0038439C
:100600003043C860086840F00100086000202021E5
:10061000206484F83D10206384F83E0001B0F0BDF2
:100620002DE9F04F85B004460020994616460F4646
:100630000490FFF73DFF94F83D10202927D105468F
:10064000206800BF816989071CD5FFF731FF411B76
:1006500020681A29F6D381698907F3D50020202163
:10066000206384F83D1084F83E00206C04F13C0ABD
:1006700040F020002064022000218AF8001005B01C
:10068000BDE8F08FA2461AF83C1F012904D10220D0
:1006900005B0BDE8F08F00BF01228AF80020036892
:1006A000DDE90F180E9ADB0703D1036843F001035D
:1006B0000360036823F400630360222084F83D0094
:1006C000402084F83E000020206462626185608DD5
:1006D000394620850020CFF6FF70E0622046324682
:1006E0004B46CDE9008500F0D1FD18B1012005B0E1
:1006F000BDE8F08F208D022810D0012824D00028DA
:1007000038D10020039020684169039181690391E9
:100710000399016841F40071016037E020680168C5
:1007200041F400610160EFF3108072B60020039085
:10073000206841690391816903910399016821F45B
:100740008061016062B621E02068016821F4806167
:100750000160EFF3108072B60020039020684169B9
:100760000391816903910399016841F4007101606B
:1007700062B60BE02068016841F4806101600021ED
:10078000039141690391806903900398208D0028AB
:1007900000F0CA80042740F208094BF2895BC0F2DE
:1007A0000107C2F20009C1F2F84B232617E000BF8F
:1007B000204641462A4601F007F8002896D12068D5
:1007C000616A00690870606A218D01306062481EAC
:1007D0002085618D01396185010400F0A58080B21A
:1007E000032865D8022800F07F800128E0D0204649
:1007F000394600224346009500F094FE00287FF41D
:1008000075AF2068016821F480610160EFF310800A
:1008100072B62068616A00690870606A218D0130D3
:10082000013960622185618D01396185D9F8001037
:10083000C908A1FB0B12110A7143049104990139F3
:1008400004910499002900F07B8021684A695207CD
:100850001DD40499013904910499002970D02168AC
:100860004A69520713D40499013904910499002963
:1008700066D021684A69520709D404990139049164
:10088000049900295CD021684A695207D6D50A68C4
:1008900042F400720A6009690170606A218D0130BA
:1008A0006062481E2085608D0138608562B686E7EB
:1008B000204641462A4600F087FF00287FF416AF05
:1008C0002068616A00690870606A2268411C208D96
:1008D000616201382085638D013B638553695B0745
:1008E0007FF57AAF10696DE720463946002243460E
:1008F000009500F017FE00287FF4F8AEEFF31080AB
:1009000072B62068616A026842F40072026000698F
:100910000870606A218D01306062481E2085608DFC
:100920000138608562B64AE7202084F83D00002047
:1009300084F83E0000218AF8001005B0BDE8F08F71
:1009400000202021206384F83D1084F83E00206CB4
:1009500040F02000206462B6012000218AF80010D7
:1009600005B0BDE8F08F00002DE9F04383B0994653
:1009700016460F460446FFF79BFD94F83D102029CC
:1009800024D10546206800BF816989071AD5FFF781
:100990008FFD411B20681A29F6D381698907F3D599
:1009A00000202021206384F83D1084F83E00216C53
:1009B00041F02001216484F83C00022003B0BDE82E
:1009C000F08300BF94F83C10012903D1022003B04A
:1009D000BDE8F083012284F83C200368DDE90B18B0
:1009E0000A9ADB0703D1036843F00103036003683D
:1009F00023F400630360212084F83D00402084F844
:100A00003E000020206462626185608D3946208549
:100A10000020CFF6FF70E062204632464B46CDE91B
:100A2000008500F0BDFC18B1012003B0BDE8F083E3
:100A3000208D98B9204641462A4600F015FD88B31E
:100A4000206C0428F0D12068016841F40071016035
:100A5000012003B0BDE8F0830004EBD020464146FE
:100A60002A4600F0F9FE0028EAD1616A22680846A9
:100A700010F8013B1361238D6062581E2085678D3D
:100A8000013F678557697F07E6D50704E4D04878BA
:100A90001061881C6062981E2085618D0139618516
:100AA000DAE700BF2068016841F40071016020208E
:100AB00084F83D00002084F83E0084F83C0003B038
:100AC000BDE8F08310B586B045F200410068C4F27D
:100AD000000100228842049202D006B010BD00BF7F
:100AE00041F21804C4F20204206840F008002060BB
:100AF000206800F0080001900198C02002901220A8
:100B000003900320059001F5384002A9FFF7C8FBC8
:100B1000606840F400106060606800F400100190AC
:100B2000019806B010BD000040F2000040F2CC0178
:100B3000C2F20000C2F2000100780A6810440860A6
:100B40007047000080B542F20000C4F20200016864
:100B500041F010010160032000F07AF80F2000F04E
:100B600005F800F027F8002080BD000070B540F2C5
:100B70000006C2F2000640F208013278C2F200011B
:100B80004FF47A730968B3FBF2F20446B1FBF2F159
:100B9000084600F063FB0F2C4FF0010508D838B968
:100BA0004FF0FF3021460022002500F025F8746048
:100BB000284670BD82B041F21800C4F202000168FC
:100BC000022241F001010160016801F0010101917F
:100BD0000199416841F080514160406800F08050C7
:100BE000009000980420C4F20100016862F31A61C9
:100BF000016002B07047000010B54EF60C5CCEF2FA
:100C0000000CDCF80030C3F3022E8EF00704042C35
:100C100028BF0424BEF103034FF0FF3E0EFA04F494
:100C200038BF0023A14399400EFA03F39A431143BE
:100C300000F00F0200F160430901043A03F5644338
:100C40006244002848BF02F10C03197010BD000077
:100C50004EF60C51CEF200010A684FF6FF031A401F
:100C600060F30A2242F0806040F0FD700860704737
:100C7000002804BF012070472DE9F04381B042F203
:100C80000008C4F202080446D8F800000D4600F03F
:100C9000070088420CD2D8F8000020F00700284353
:100CA000C8F80000D8F8000000F00700A8426CD196
:100CB000206841F204098107C4F2020917D54107EF
:100CC00005D5D9F8001041F4E061C9F8001001071A
:100CD00005D5D9F8001041F46051C9F80010D9F8D1
:100CE0000010A26821F0F0011143C9F80010C007FC
:100CF00042D1D8F8000000F00700A8420CD9D8F87B
:100D0000000020F007002843C8F80000D8F80000D1
:100D100000F00700A84238D12068410707D5D9F86C
:100D20000010E26821F4E0611143C9F800100007E7
:100D300008D5D9F80000216920F4605040EAC100CC
:100D4000C9F80000D9F8002002F00C00082841F290
:100D50000020C0F27A0051D141F66C43C2F38341C6
:100D6000C0F60003595CD2033CD440F60010C0F238
:100D70003D00484342E000BF606802280AD00128D5
:100D80002AD159F8041C890308D4012001B0BDE818
:100D9000F08300BF59F8041C8901F6D5D9F800107A
:100DA00021F003010843C9F80000FFF781FB064664
:100DB00041F28837D9F80000616800F00C00B0EB10
:100DC000810F96D0FFF774FB801BB842F2D9032045
:100DD00001B0BDE8F08300BF59F8041C8907D4D5E1
:100DE000DCE700BFD9F8002041F66A43C2F3404275
:100DF000C0F600039A5C4843B0FBF2F0D9F800104B
:100E000041F65242C1F30311C0F60002515C40F2B8
:100E1000080220FA01F140F20400C2F2000000686A
:100E2000C2F200021160FFF7A1FE002001B0BDE890
:100E3000F083000040F2080041F20401C2F2000019
:100E4000C4F202010068096841F66242C1F302215E
:100E5000C0F60002515CC84070470000002804BF83
:100E6000012070472DE9F04182B00446007841F23C
:100E70000006C007C4F202060CD0706800F00C0037
:100E8000042840F081803068800303D56068002822
:100E900000F04E81207880071BD5706810F00C0F91
:100EA00009D0706800F00C00082840F08B80706852
:100EB000C00300F187803068800703D520690128CE
:100EC00040F036813068616920F0F80040EAC100E6
:100ED00030602078000713D4207840072CD4E569CF
:100EE000002D00F02081706800F00C00082840F010
:100EF000AF80012D40F00C81012002B0BDE8F081EF
:100F0000A069002800F08C800020C4F2422001215A
:100F1000C0F88014FFF7CCFA054600BF706A80075E
:100F200000F1BA80FFF7C4FA401B0228F6D903206B
:100F300002B0BDE8F08100BFF0695FEAC00808D4E4
:100F4000F06940F08050F061F06900F0805000904E
:100F5000009847F20007C4F200073868C0054DD476
:100F6000386840F480703860FFF7A2FA054600BF89
:100F70003868C00542D4FFF79BFA401B6428F7D9B4
:100F8000032002B0BDE8F081706800F00C00082872
:100F900003D17068C0033FF576AF6068002800F0A9
:100FA0000981B0F5A02F00F01D81B0F5803F00F061
:100FB0001D81306820F480303060306820F480205B
:100FC00017E100BF2069002840F20000C4F242206F
:100FD00000F08C8001210160FFF76AFA054600BF2E
:100FE000306880073FF56EAFFFF762FA401B0228BA
:100FF000F6D9032002B0BDE8F08100BFE068002808
:1010000000F09A80052800F0B180012800F0B2803D
:10101000306A20F001003062306A20F00400ACE059
:101020000020C4F242200021C0F88014FFF740FAEB
:10103000054600BF706A80077FF54EAFFFF738FAAC
:10104000401B0228F6D9032002B0BDE8F08100BFA2
:101050000027C4F2422700203866FFF729FA022D44
:1010600005460DD13068800140F1D680FFF720FAA7
:10107000401B02284FF00300F4D902B0BDE8F08114
:10108000306880014FD5FFF713FA401B02284FF05C
:101090000300F5D9F1E700BF40F20800C2F20000FA
:1010A000006844F6D351C1F26201A0FB0101480A75
:1010B000019000BF00BF0198411E002801913FF43C
:1010C0000BAF00BF0198411E002801913FF404AF0F
:1010D00000BF0198411E002801913FF4FDAE00BF02
:1010E0000198411E00280191E4D1F5E6002101603C
:1010F000FFF7DEF9054600BF306880077FF5E9AEEF
:10110000FFF7D6F9401B02284FF00300F4D9B4E7EB
:101110007068216A00F480328A4209D1616A00F461
:101120007010884204D1002002B0BDE8F08100BFF9
:10113000012002B0BDE8F081306A20F00100306289
:10114000306A20F004003062FFF7B2F9054641F240
:10115000883700BF306A800722D5FFF7A9F9401B06
:10116000B8424FF00300F5D987E700BF306A40F07E
:1011700004003062306A40F001003062FFF798F9F5
:10118000054641F2883700BF306A800708D4FFF770
:101190008FF9401BB842F7D9032002B0BDE8F081B7
:1011A000B8F1000F3FF59BAEF06920F08050F06180
:1011B00095E600BF306820F480303060306820F45D
:1011C00080203060FFF774F9054600BF3068800367
:1011D0007FF560AEFFF76CF9401B64284FF0030009
:1011E000F4D94AE7306840F480203060306840F439
:1011F00080303060FFF75CF9054600BF306880033F
:101200003FF548AEFFF754F9401B6428F6D9032098
:1012100002B0BDE8F08100BF206AB0F5803F05D183
:101220007168A26821F40031114371607168626ACB
:1012300021F4741111430843706001203866FFF7F0
:1012400037F90446306880013FF56DAFFFF730F99C
:10125000001B02284FF00300F4D90EE7411E0020C6
:10126000B0EB116F1CBF012070474EF21002CEF29E
:10127000000251604EF62351CEF20001F0230B70B4
:101280000721906011607047FEE700002DE9F047EC
:1012900082B0044600689A460B9D0A9E03689146F8
:1012A00043F48062026002680F4642F4807101607C
:1012B00020464FF0011100223346009500F032F92C
:1012C00050B120680068C00544BF4FF4007020642E
:1012D000032002B0BDE8F08740F202082068C0F2A7
:1012E000010807F0FE0707612046414632462B46BB
:1012F00000F0FEF920B1012002B0BDE8F08700BF88
:101300000020019020682A46416901918069314698
:1013100001900198204600F09FFAB0B92068BAF118
:10132000010F09D04FEA19210161204631462A46B2
:1013300000F092FA48B920685FFA89F1016120460D
:1013400031462A4600F088FA60B1206C0428D2D1D8
:101350002068016841F400710160012002B0BDE81D
:10136000F08700BF206800220168334641F4807195
:10137000016020464FF00111009500F0D3F80028DD
:101380009FD147F0010C27682046414632462B4644
:10139000C7F810C002B0BDE8F04700F0A9B90000DE
:1013A0002DE9F04383B0044600680D4601680A9FAA
:1013B0000B9E41F4807199469046016020464FF0A3
:1013C000011100223B46009600F0ACF850B12068B5
:1013D0000068C00544BF4FF400702064032003B0D0
:1013E000BDE8F083206805F0FE0101610221C0F232
:1013F000010120463A46334600F07AF920B1012037
:1014000003B0BDE8F08300BF0020029020683246A0
:10141000416902918069394602900298204600F0A5
:101420001BFA58B1206C0428E9D12068016841F406
:1014300000710160012003B0BDE8F0832068B9F1BC
:10144000010F0AD04FEA1821016120463946324681
:1014500000F002FA0028E5D120685FFA88F1016106
:10146000002003B0BDE8F08370B50368044653F86C
:10147000140F400711D40E46481C29D086BB00BF6C
:101480001868400527D4FFF713F8236853F8140FA2
:10149000400737D518684007F2D5002070BD00BF5F
:1014A00018684007F9D41868400514D41868400734
:1014B000F3D4186840050ED418684007EDD41868B6
:1014C000400508D4186840074FF0000048BF70BDC1
:1014D00018684005E4D56FF480601860042012E0BD
:1014E000154603E053F8140F4007D6D4186840059A
:1014F000F1D4FEF7DDFF401B2368B042F2D95869F2
:101500004007EFD4202000212022216384F83D20D1
:1015100084F83E10226C10432064012084F83C10B3
:1015200070BD00002DE9F041054600681E461446D6
:1015300001F47F0201338FB242D0DDF81880B2F59A
:10154000803F40F0878040693840C01BB0FA80F08F
:101550004009A04240F0C8804EB924E040693840BC
:10156000C01BB0FA80F04009A04240F0BD80FEF7F9
:101570009FFFA0EB08012868B142EFD941693940CB
:10158000C91BB1FA81F14909A142E7D19BE000BF33
:1015900040693840C01BB0FA80F04009A0424FF0CB
:1015A000000040F0A280FEF783FF286841693940BF
:1015B000C91BB1FA81F14909A142E9D183E000BF19
:1015C000B2F5803F24D100BF41693940C91BB1FA4F
:1015D00081F14909A14240F0878041693940C91B26
:1015E000B1FA81F14909A14240F07E804169394058
:1015F000C91BB1FA81F14909A14275D1416939404C
:10160000C91BB1FA81F14909A142DDD06CE000BFEC
:1016100081693940C91BB1FA81F14909A14263D1FD
:1016200081693940C91BB1FA81F14909A1425BD1F5
:1016300081693940C91BB1FA81F14909A14253D1ED
:1016400081693940C91BB1FA81F14909A142DFD052
:101650004AE000BF80693840C01BB0FA80F0400902
:10166000A04241D146B923E080693840C01BB0FA9E
:1016700080F04009A04237D1FEF71AFFA0EB080125
:101680002868B142F0D981693940C91BB1FA81F1AA
:101690004909A142E8D116E080693840C01BB0FA80
:1016A00080F04009A0424FF0000018BFBDE8F08173
:1016B000FEF7FEFE286881693940C91BB1FA81F145
:1016C0004909A142E8D100202021286385F83D1076
:1016D00085F83E00296C41F02001296485F83C0022
:1016E0000120BDE8F08100BF0020BDE8F0810000CE
:1016F000F0B581B0044600681D4643698FB203EA25
:101700000701B94202D1002001B0F0BD416916467F
:1017100001323FD049053FD4CEB100BFFEF7C8FE2D
:10172000411B2068B14203D941693940B94215D102
:1017300041693940B942E6D041694905EED52BE00F
:1017400041693940B942DED04169490524D4FEF7E8
:10175000AFFE206841693940B942F1D0202023E032
:1017600041693940B942CED04169490514D4416933
:101770003940B942C7D0416949050DD44169394062
:10178000B942C0D04169490506D441693940B942DE
:10179000B9D041694905E3D5016841F400710160A0
:1017A0006FF480614161042000212022216384F8CC
:1017B0003D2084F83E10226C1043206484F83C10D5
:1017C000012001B0F0BD000070B504460068154668
:1017D00050F8143F5A063DD40E4629B926E000BF02
:1017E00050F8141F490635D40168C90621D4FEF704
:1017F0005FFE411B2068B142F2D941694906EFD42E
:1018000000202021206384F83D1084F83E00206CE5
:1018100040F0200018E000BFFEF74AFE206850F8B4
:10182000141F4906ECD50168490613D40168C9069E
:10183000F2D56FF01001016000202021206384F8B0
:101840003D1084F83E00206C2064002084F83C00A9
:10185000012070BD002070BD70B50368044653F8C8
:10186000140F000611D40E46481C29D086BB00BFB9
:101870001868400527D4FEF71BFE236853F8140FA1
:10188000000637D518680006F2D5002070BD00BFED
:1018900018680006F9D41868400514D418680006C2
:1018A000F3D4186840050ED418680006EDD4186803
:1018B000400508D4186800064FF0000048BF70BD0E
:1018C00018684005E4D56FF480601860042012E0C9
:1018D000154603E053F8140F0006D6D418684005E7
:1018E000F1D4FEF7E5FD401B2368B042F2D95869F8
:1018F0000006EFD4202000212022216384F83D201F
:1019000084F83E10226C10432064012084F83C10BF
:1019100070BD00002DE9F04385B0814601240DF132
:101920000D00CDE9000440F2780088464FF0FF3703
:10193000C2F200003B210D2201230297FEF770FE48
:101940009DF80D002A2840F09B8040F27806C2F2F4
:1019500000060DF10E0530463B212A220123CDE978
:1019600000540297FEF75CFE9DF80E003A2100F04D
:10197000FE008DF80E0030462A220123CDE90054E6
:101980000297FEF7F1FF04A8CDE9000430463B21A1
:101990000B2201230297FEF743FE9DF8100010BBB7
:1019A00040F27806C2F200064FF0FF3401250DF137
:1019B0000F0730463B210E220123CDE9007502942A
:1019C000FEF72EFE9DF80F003A2100F0FC0040EAE1
:1019D00099008DF80F0030460E220123CDE90075E5
:1019E0000294FEF7C1FF40F2780601250DF11200C6
:1019F000C2F200064FF0FF37CDE9000530463B212B
:101A00000B2201230297FEF70BFE0DF11104304665
:101A10003B212A220123CDE900450297FEF700FE73
:101A20009DF811003A2100F0C70040EAC8008DF887
:101A3000110030462B220123CDE900450297FEF725
:101A400093FF0DF1130430463B212A220123CDE9F7
:101A500000450297FEF7E4FD9DF813003A2140F09F
:101A600001008DF8130030462A220123CDE90045FC
:101A70000297FEF779FF284605B0BDE8F08300BF66
:101A80000025284605B0BDE8F0830000F0B587B01A
:101A90000D46064601200DF11B01CDE9001040F274
:101AA000780014464FF0FF37C2F200003B212A2293
:101AB00001230297FEF7B4FD9DF81B0080071BD49D
:101AC00006200DF11501CDE9001040F27800C2F2B8
:101AD00000003B21012201230297FEF7A1FDBDF882
:101AE0001500BDF81710BDF8192000BA09BA12BACE
:101AF00000150915121514E003200DF11201CDE9AE
:101B0000001040F27800C2F200003B2101220123C4
:101B10000297FEF785FD9DF812009DF813109DF8C1
:101B2000142030802980228007B0F0BDFEE700003D
:101B3000FEE700007047000070470000FEF7F4BFAA
:101B400070470000FEE7000090B0FEF7FBFF0024A6
:101B50000120CDE90B44CDE9094406900A904FF4E9
:101B6000E0104FF4803102250F9006A8CDE907144C
:101B7000CDE90D51FFF772F920B1EFF3108072B685
:101B8000FEE700BF0F20CDE901054FF48060CDE9ED
:101B9000040401A802210394FFF76AF820B1EFF3CF
:101BA000108072B6FEE700BF41F21800C4F20200D6
:101BB000016840F2700441F0200101600168C2F246
:101BC000000401F02001069106990168002241F00D
:101BD0000401016001684FF4804301F004010691A3
:101BE0000699016841F008010160006845F2004172
:101BF00000F0080006900698C4F20001204640F864
:101C0000081F48F2A061C0F20101C0E90112C0E959
:101C10000323C0E90522C0E90722FEF74FFC28B1E3
:101C2000EFF3108072B600BFFEE700BFFEF78AFF39
:101C300002200321FFF76EFE0028F7D0A51C261D09
:101C4000204629463246FFF721FF6420FEF714FBA9
:101C5000F6E7000000000000000001020304060790
:101C60000809000000000102030401020203040548
:101C7000060708090A0B0C0D0E0F1010A01C000817
:101C8000000000201000000050010008B01C0008F7
:101C900010000020C00600007001000800000000D5
:101CA00001000000100000000024F400000000000B
:04000005080000ED02
:00000001FF
