:020000040800F2
:1000000030070020BD010008DD1B0008B9170008FB
:10001000D91B00086D040008FD1B0008000000004B
:10002000000000000000000000000000E51B0008C8
:100030007104000800000000E11B0008E91B000833
:10004000D7010008D7010008D7010008D701000830
:10005000D7010008D7010008D7010008D701000820
:10006000D7010008D7010008D7010008D701000810
:10007000D7010008D7010008D7010008D701000800
:10008000D7010008D7010008D7010008D7010008F0
:10009000D7010008D7010008D7010008D7010008E0
:1000A000D7010008D7010008D7010008D7010008D0
:1000B000F11B0008D7010008D7010008D70100088C
:1000C000D7010008D7010008D7010008D7010008B0
:1000D000D7010008D7010008D7010008D7010008A0
:1000E000D7010008D7010008D701000800F002F886
:1000F00000F055F814A696E8000CB244B344DA4573
:1001000001D100F04CF8BAE80F000FA696E83000D5
:10011000A5EB040504EB0607AAEB0704A7F101070A
:100120004FEA15154FEA3414A4F10104AC4201D38F
:1001300000F035F813F0010F18BFFB1A43F001036C
:1001400000F001F8DBE71847581E0000781E000099
:10015000103A24BF78C878C1FAD8520724BF30C8F3
:1001600030C144BF04680C60704700007047000055
:100170000023002400250026103A28BF78C1FBD8B0
:10018000520728BF30C148BF0B607047642900F098
:100190007D80002070471FB51FBD10B510BD00F059
:1001A0002AF91146FFF7F7FF01F01AFE00F048F9AF
:1001B00003B4FFF7F2FF03BC00F050F90948804791
:1001C00009480047FEE7FEE7FEE7FEE7FEE7FEE739
:1001D000FEE7FEE7FEE7FEE704480549054A064B51
:1001E00070470000ED1B0008ED0000083001002002
:1001F0003007002030030020300300200FB41CB56E
:10020000074B06AA7B4469460090059800F0DBF88E
:100210000020694600F0EAF81CBC5DF814FB000001
:10022000E50100002DE9F0410E4604460020206261
:100230002046E168884730B3252805D0D4E901215C
:100240009047206A401CF2E7E16820460027884773
:10025000050018D0A5F14100192802D820354FF427
:1002600000673246294620462760FFF78FFF40B1DE
:10027000012804D0F61D26F007060836D8E7361DFB
:10028000D6E72846DAE7206ABDE8F0812DE9F0419B
:100290000646002410687529314616A510D0AFF324
:1002A0000080002802DA404213A507E031688A077F
:1002B00001D512A502E0490704D511A5012401E0EA
:1002C000AFF3008000210A2206F1240709E0B0FB09
:1002D000F2FCB0FBF2F302FB1C00303078541846FD
:1002E000491C0028F3D123462A463046BDE8F04198
:1002F00000F00BB8000000002D0000002B000000F3
:10030000200000007047704770472DE9F0470D4608
:1003100099469246044600F124080168880604D5EF
:10032000E06921F01001216000E00120A84201DD18
:10033000471B00E00027A1697A1902EB0900081A9F
:10034000A0612078C00602D42046AFF300800026CA
:1003500008E0D4E901211AF806009047206A401C01
:10036000761C20624E45F4DB2078C0060AD5204674
:10037000AFF3008006E0D4E9012130209047206AE5
:10038000401C2062381EA7F10107F4DC07E0D4E925
:10039000012118F805009047206A401C2062281EA1
:1003A000A5F10105F3DC2046AFF3008020780006BC
:1003B00002D50220BDE8F0870120FBE701694A1C55
:1003C00002610878704700B58FB0CDE90131002196
:1003D000059105497944CDE9031011466846FFF7B8
:1003E00021FF0FB000BD0000E5FFFFFF0A6802F823
:1003F000010B0A607047754600F02CF8AE46050008
:100400006946534620F00700854618B020B5FFF72F
:10041000E3FEBDE820404FF000064FF000074FF02C
:1004200000084FF0000BAC46ACE8C009ACE8C009CE
:10043000ACE8C009ACE8C00921F007018D4670475F
:1004400010B50446AFF300802046BDE81040FFF72A
:10045000AFBE00000048704710000020014918207E
:10046000ABBEFEE72600020070470000FEE700007A
:1004700070470000B0B5044600F01EF9054640F292
:100480000000C2F200000078611C18BF044400BFE5
:1004900000F012F9401BA042FAD3B0BD2DE9F04F95
:1004A00082B00E68002E00F0FD8041F20042C4F2DE
:1004B0000102042340F2004E904208BF03234FF68E
:1004C000FF7CC4F2010E009300240123C1F2100C42
:1004D0004FF0000A4FF0000944E000BF012704F08C
:1004E0000C030F229A402BEA020207FA03F34FEAA9
:1004F0009A051A4346F825204E6840F20C45F20250
:10050000DEF8082054BF22EA080242EA0802C4F2D8
:100510000105CEF808202A68B30254BF22EA080277
:1005200042EA08022A60B303DEF8042054BF22EA3C
:10053000080242EA0802F303CEF80420DEF80020A5
:100540004FF0010354BF22EA080242EA0802CEF843
:1005500000200E680AF1010A36FA0AF204F10404D6
:1005600000F0A08003FA0AFB16EA0B08F1D04E68EF
:10057000664511DC122E55D8DFE806F0340A4448EF
:10058000545454545454545454545454544C50008B
:10059000D1F80C9046E000BF4FF6FF72C1F2210285
:1005A00096420FDC0022C1F2110296421AD00022BC
:1005B000C1F21202964215D00022C1F221029642E7
:1005C00010D02FE00022C1F2220296420AD000226F
:1005D000C1F23102964205D00022C1F232029642A7
:1005E00020D100BF8A684AB1012A14BFC0F814B0F4
:1005F000C0F810B04FF0080914E000BF4FF0040934
:1006000010E000BFCA6802F108090BE04FF00009D2
:1006100008E000BFCA6802F1040903E0CA6802F1F9
:100620000C0900BF22460646B8F5807F24BF203A59
:10063000043637680F25954027EA050509FA02F2C6
:100640002A433260CA79D2067FF583AF41F218039C
:10065000C4F202031A68AEF57E7642F001021A6017
:100660001A6802F001020192019A2AF0030256F878
:1006700002B040F60002C4F20102904210D040F6EF
:100680000042C4F2010290423FF428AF41F200025E
:10069000C4F20102009F904208BF02271FE700BF7B
:1006A00000271CE702B0BDE8F08F0000002A08BF59
:1006B000090401617047000040F22810C2F20000F6
:1006C00000687047002804BF01207047F0B581B072
:1006D000044690F83D0028B9002084F83C002046EC
:1006E00000F090F9242084F83D002068016821F092
:1006F00001010160016841F400410160016821F4D9
:100700000041016000F048FB636848F2A16CC0F250
:10071000010C40F60011C0F23D0163453CBF48F2B8
:100720008041C0F21E01884202D2012001B0F0BD1A
:100730004DF68361C4F21B31A0FB01122168970CB6
:10074000D1F804E04FF496762EF03F0545EA924545
:100750004D60774348F638160D6AC0F24106A7FB94
:10076000067625F03F07634538BF960C721C3A4366
:100770000A62CA6948F2A0664CF6FF77C0F2010629
:10078000B34222EA07020BD801385B00B0FBF3F05A
:1007900001306FF31F30042898BF04201BE000BF16
:1007A000A768013857B119277B43B0FBF3F001303C
:1007B0006FF31F3070B100F5804007E003EB430397
:1007C000B0FBF3F001306FF31F3018B100F50040BB
:1007D00001E000BF01201043C8610868D4E9072385
:1007E00020F0C000104318430860886848F2FF32C8
:1007F00004F10C0790438CCF18431043A66988601E
:10080000C86820F0FF0038433043C860086840F0F3
:100810000100086000202021206484F83D1020633E
:1008200084F83E0001B0F0BD2DE9F04383B01E46D0
:10083000174689460446FFF73FFF94F83D102029EC
:1008400024D10546206800BF816989071AD5FFF7C2
:1008500033FF411B20681A29F6D381698907F3D534
:1008600000202021206384F83D1084F83E00216C94
:1008700041F02001216484F83C00022003B0BDE86F
:10088000F08300BF94F83C10012903D1022003B08B
:10089000BDE8F083012184F83C100168C90703D149
:1008A000016841F001010160016840F2020821F491
:1008B00000610160212184F83D10102184F83E1070
:1008C0000021216467626685618DC0F2010821857F
:1008D000A8F10211E162E16A0A9E11F5803F18BF9A
:1008E00001291DD1016841F48071016020464FF05B
:1008F000011100223346009500F0BEFF50B1206880
:100900000068C00544BF4FF400702064012003B0AC
:10091000BDE8F0832069B0F5804F07D1FE2015E0D7
:100920000829DFD0216B1229DCD0DFE7062000EA9E
:10093000D9102168F030086108F1060120463246DE
:100940002B4601F07FF80028E0D1FF20216800EA63
:10095000090008612046414632462B4601F072F8F4
:100960000028D3D10020029020684169029180695B
:100970000290029806E000BF204631462A4600F069
:100980001DFF18BB208D68B3204631462A4601F072
:10099000C5F8D8B9606A2168024612F8013B0B61BC
:1009A0006262628D013A6285228D531E23854F69F2
:1009B0007F07E1D51B04DFD0437802300B61606212
:1009C000608D01386085901E2085D5E7206C042855
:1009D0009CD12068016841F400710160012003B0DE
:1009E000BDE8F0832068016841F4007101602020B7
:1009F00084F83D00002084F83E0084F83C0003B0F9
:100A0000BDE8F08310B586B045F200410068C4F23D
:100A1000000100228842049202D006B010BD00BF3F
:100A200041F21804C4F20204206840F0080020607B
:100A3000206800F0080001900198C0200290122068
:100A400003900320059001F5384002A9FFF726FD29
:100A5000606840F400106060606800F4001001906D
:100A6000019806B010BD000040F2000040F22811CD
:100A7000C2F20000C2F2000100780A681044086067
:100A80007047000080B542F20000C4F20200016825
:100A900041F010010160032000F08CF80F2000F0FD
:100AA00005F800F027F8002080BD000070B540F286
:100AB0000006C2F2000640F208013278C2F20001DC
:100AC0004FF47A730968B3FBF2F20446B1FBF2F11A
:100AD000084600F075FB0F2C4FF0010508D838B917
:100AE0004FF0FF3021460022002500F037F87460F7
:100AF000284670BD82B041F21800C4F202000168BD
:100B0000022241F001010160016801F0010101913F
:100B10000199416841F080514160406800F0805087
:100B2000009000980420C4F20100016862F31A6189
:100B3000016002B070470000002848BF704700F015
:100B40001F01012202FA01F11C2202EAD0004EF23A
:100B50000012CEF2000281507047000010B54EF630
:100B60000C5CCEF2000CDCF80030C3F3022E8EF0E9
:100B70000704042C28BF0424BEF103034FF0FF3EFA
:100B80000EFA04F438BF0023A14399400EFA03F390
:100B90009A43114300F00F0200F160430901043A47
:100BA00003F564436244002848BF02F10C03197046
:100BB00010BD00004EF60C51CEF200010A684FF64F
:100BC000FF031A4060F30A2242F0806040F0FD709B
:100BD00008607047002804BF012070472DE9F043EA
:100BE00081B042F20008C4F202080446D8F80000BE
:100BF0000D4600F0070088420CD2D8F8000020F023
:100C000007002843C8F80000D8F8000000F00700EB
:100C1000A8426CD1206841F204098107C4F202099C
:100C200017D5410705D5D9F8001041F4E061C9F89E
:100C30000010010705D5D9F8001041F46051C9F83A
:100C40000010D9F80010A26821F0F0011143C9F892
:100C50000010C00742D1D8F8000000F00700A842F9
:100C60000CD9D8F8000020F007002843C8F800008D
:100C7000D8F8000000F00700A84238D120684107EA
:100C800007D5D9F80010E26821F4E0611143C9F8F2
:100C90000010000708D5D9F80000216920F4605041
:100CA00040EAC100C9F80000D9F8002002F00C00A9
:100CB000082841F20020C0F27A0051D141F6907329
:100CC000C2F38341C0F60003595CD2033CD440F622
:100CD0000010C0F23D00484342E000BF60680228B7
:100CE0000AD001282AD159F8041C890308D401200C
:100CF00001B0BDE8F08300BF59F8041C8901F6D5A6
:100D0000D9F8001021F003010843C9F80000FFF7EB
:100D1000D3FC064641F28837D9F80000616800F03C
:100D20000C00B0EB810F96D0FFF7C6FC801BB842D9
:100D3000F2D9032001B0BDE8F08300BF59F8041CCC
:100D40008907D4D5DCE700BFD9F8002041F68E73BF
:100D5000C2F34042C0F600039A5C4843B0FBF2F095
:100D6000D9F8001041F67672C1F30311C0F6000203
:100D7000515C40F2080220FA01F140F20400C2F294
:100D800000000068C2F200021160FFF78FFE002031
:100D900001B0BDE8F083000040F2080041F2040118
:100DA000C2F20000C4F202010068096841F68672CE
:100DB000C1F30221C0F60002515CC8407047000038
:100DC000002804BF012070472DE9F04182B004469D
:100DD000007841F20006C007C4F202060CD0706829
:100DE00000F00C00042840F081803068800303D5B7
:100DF0006068002800F04E81207880071BD570685D
:100E000010F00C0F09D0706800F00C00082840F0BA
:100E10008B807068C00300F187803068800703D53D
:100E20002069012840F036813068616920F0F800BF
:100E300040EAC10030602078000713D420784007D2
:100E40002CD4E569002D00F02081706800F00C00C2
:100E5000082840F0AF80012D40F00C81012002B045
:100E6000BDE8F081A069002800F08C800020C4F269
:100E700042200121C0F88014FFF71EFC054600BF88
:100E8000706A800700F1BA80FFF716FC401B022849
:100E9000F6D9032002B0BDE8F08100BFF0695FEA37
:100EA000C00808D4F06940F08050F061F06900F0AB
:100EB00080500090009847F20007C4F2000738689D
:100EC000C0054DD4386840F480703860FFF7F4FBFB
:100ED000054600BF3868C00542D4FFF7EDFB401B54
:100EE0006428F7D9032002B0BDE8F081706800F0F3
:100EF0000C00082803D17068C0033FF576AF606826
:100F0000002800F00981B0F5A02F00F01D81B0F598
:100F1000803F00F01D81306820F480303060306800
:100F200020F4802017E100BF2069002840F2000073
:100F3000C4F2422000F08C8001210160FFF7BCFB6D
:100F4000054600BF306880073FF56EAFFFF7B4FB82
:100F5000401B0228F6D9032002B0BDE8F08100BF93
:100F6000E068002800F09A80052800F0B180012890
:100F700000F0B280306A20F001003062306A20F068
:100F80000400ACE00020C4F242200021C0F880142C
:100F9000FFF792FB054600BF706A80077FF54EAFF2
:100FA000FFF78AFB401B0228F6D9032002B0BDE8F8
:100FB000F08100BF0027C4F2422700203866FFF707
:100FC0007BFB022D05460DD13068800140F1D680B3
:100FD000FFF772FB401B02284FF00300F4D902B068
:100FE000BDE8F081306880014FD5FFF765FB401BFD
:100FF00002284FF00300F5D9F1E700BF40F20800E6
:10100000C2F20000006844F6D351C1F26201A0FBB5
:101010000101480A019000BF00BF0198411E00284D
:1010200001913FF40BAF00BF0198411E00280191D0
:101030003FF404AF00BF0198411E002801913FF426
:10104000FDAE00BF0198411E00280191E4D1F5E6F4
:1010500000210160FFF730FB054600BF30688007C4
:101060007FF5E9AEFFF728FB401B02284FF0030095
:10107000F4D9B4E77068216A00F480328A4209D159
:10108000616A00F47010884204D1002002B0BDE80B
:10109000F08100BF012002B0BDE8F081306A20F08D
:1010A00001003062306A20F004003062FFF704FB78
:1010B000054641F2883700BF306A800722D5FFF726
:1010C000FBFA401BB8424FF00300F5D987E700BF99
:1010D000306A40F004003062306A40F00100306253
:1010E000FFF7EAFA054641F2883700BF306A800709
:1010F00008D4FFF7E1FA401BB842F7D9032002B049
:10110000BDE8F081B8F1000F3FF59BAEF06920F02B
:101110008050F06195E600BF306820F48030306088
:10112000306820F480203060FFF7C6FA054600BF23
:10113000306880037FF560AEFFF7BEFA401B64287D
:101140004FF00300F4D94AE7306840F48020306063
:10115000306840F480303060FFF7AEFA054600BFDB
:10116000306880033FF548AEFFF7A6FA401B6428BD
:10117000F6D9032002B0BDE8F08100BF206AB0F5C7
:10118000803F05D17168A26821F40031114371607C
:101190007168626A21F47411114308437060012080
:1011A0003866FFF789FA0446306880013FF56DAF75
:1011B000FFF782FA001B02284FF00300F4D90EE774
:1011C000411E0020B0EB116F1CBF012070474EF292
:1011D0001002CEF2000251604EF62351CEF2000111
:1011E000F0230B700721906011607047704700007A
:1011F0007047000090F83C20012A4FF0020236D0E0
:1012000010B580F83D200268D2F804E0D2F808C09A
:101210000C682EF07003234340F2FF74C4F2000404
:10122000A24253600ADCB2F1804F13D040F2004377
:10123000C4F200039A420DD011E000BF42F6004311
:10124000C4F201039A4205D040F60003C4F2000341
:101250009A4204D149682CF080031943916001211E
:10126000002280F83D1080F83C20BDE81040104678
:1012700070470000002804BF0120704710B50446E5
:1012800090F83D0028B9002084F83C00204600F08A
:1012900067F8022084F83D00206840F2FF7302687E
:1012A000C4F2000342F6004C9842C4F2010C15DC73
:1012B000B0F1804F1AD040F20041C4F200018842E0
:1012C00014D0984218DCB0F1804F1DD040F200419C
:1012D000C4F20001884217D01AE000BF604505D073
:1012E00040F60001C4F200018842EAD1A16822F070
:1012F00070020A439842E6DD604505D040F60001E1
:10130000C4F20001884203D1216922F440720A43E9
:10131000A36922F08001D4F804E0E2681943604533
:101320000160C262C0F828E002D16169CCF83010D7
:1013300001214161002084F8461084F83E1084F8B1
:101340003F1084F8401084F8411084F8421084F86B
:10135000431084F8441084F8451084F83D1010BD03
:101360000068B0F1804F18BF704780B582B041F27D
:101370001C00C4F202000168002241F0010101607A
:101380000068002100F00100019001981C20FFF787
:10139000E5FB1C2002B0BDE88040FFF7CDBB00009C
:1013A00090F83D1001291CBF01207047022180F8F0
:1013B0003D10006840F2FF72C168C4F20002904222
:1013C00041F00101C16009DCB0F1804F12D040F260
:1013D0000041C4F2000188420CD012E042F6004104
:1013E000C4F20101884205D040F60001C4F20001B8
:1013F000884206D1816801F00701062904BF002058
:101400007047016841F00101016000207047000051
:1014100090F83C20012A4FF0020200F0C58080B510
:1014200080F83D20D0F800C04FF67772DCF8083025
:1014300023EA0202CCF808200B684F2B28DC1F2B74
:1014400044DD202B45D0302B43D0402B40F0AE80E4
:10145000D1F804E0C968DCF82030DCF8202022F064
:101460000102CCF82020DCF8182022F0F00242EA39
:10147000011123F00A0242EA0E02CCF81810CCF84F
:101480002020DCF8081041F0470121F0300180E015
:101490006F2B27DDB3F5005F48D0B3F5805F7AD0BE
:1014A000702B40F08380D1E901E3C968DCF80820A3
:1014B00043EA0E0322F47F4243EA01211143CCF8B0
:1014C0000810DCF8081041F0770162E00BB1102B36
:1014D0006CD1DCF8081021F07001194341F00701CC
:1014E00057E000BF502B35D0602B5FD1D1F804E01E
:1014F000C968DCF82030DCF8202022F01002CCF89B
:101500002020DCF8182022F4704242EA013123F056
:10151000A00242EA0E12CCF81810CCF82020DCF819
:10152000081041F0670121F0100132E0D1E901E338
:10153000C968DCF8082043EA0E0322F47F4243EA3C
:1015400001211143CCF80810DCF8081041F4804167
:101550001FE000BFD1F804E0C968DCF82030DCF8F7
:10156000202022F00102CCF82020DCF8182022F004
:10157000F00242EA011123F00A0242EA0E02CCF81C
:101580001810CCF82020DCF8081041F0570121F0A9
:101590002001CCF808100022012180F83D10002124
:1015A00080F83C10BDE88040104670470122F3E708
:1015B0007047000010B5016804460869800744BF01
:1015C000C8685FEA807039D40869400744BFC868BA
:1015D0005FEA40703ED40869000744BFC8685FEA0C
:1015E000007045D40869C00644BFC8685FEAC0609F
:1015F0004AD40869C0071CBFC8685FEAC07051D1EF
:101600000869000644BFC8685FEA006052D40869F0
:10161000400644BFC8685FEA406053D4086980064A
:1016200046BFC8685FEA806010BD6FF020022046A8
:101630000A61BDE81040FFF7DBBD00BF6FF002009C
:101640000861012020778869800743D02046FFF792
:10165000AFFF45E06FF00400086102202077886941
:1016600010F4407F40D02046FFF7A2FF42E000BFC9
:101670006FF00800086104202077C86980073DD01A
:101680002046FFF795FF3FE06FF01000086108204B
:101690002077C86910F4407F3AD02046FFF788FFD2
:1016A0003CE000BF6FF001000861204600F03EF80A
:1016B0002168A5E76FF0800008612046FFF796FDDE
:1016C0002168A4E76FF040000861204600F072F83E
:1016D0002168A3E7204600F025F8204600F024F812
:1016E0002168002020776FE7204600F01BF8204695
:1016F00000F01AF82168002020776CE7204600F0FF
:1017000011F8204600F010F821680020207769E7E2
:10171000204600F007F8204600F006F82168002077
:10172000207766E77047000070470000B0B540F2D0
:101730007005C2F200050068E969884200D0B0BDBA
:101740002A7805F10C041AA12046FEF757FD204621
:1017500000F016FB28780130287028780A2801D27A
:10176000012008E028780A2804D32878642801D2C8
:10177000022000E00320D5E9012110441028686010
:1017800008DB39B901200021012400F04FFAAC60D8
:10179000B0BD00BF2028B8BFB0BD00F031FA0020B6
:1017A0000021002400F042FA6C60AC60B0BD00BFC4
:1017B0002564000070470000FEE7000070B5036874
:1017C000044653F8140F400711D40E46481C29D084
:1017D00086BB00BF1868400527D4FEF76DFF23685D
:1017E00053F8140F400737D518684007F2D500208A
:1017F00070BD00BF18684007F9D41868400514D4BC
:1018000018684007F3D4186840050ED418684007DC
:10181000EDD41868400508D4186840074FF0000060
:1018200048BF70BD18684005E4D56FF4806018604B
:10183000042012E0154603E053F8140F4007D6D4F5
:1018400018684005F1D4FEF737FF401B2368B0420B
:10185000F2D958694007EFD42020002120222163CB
:1018600084F83D2084F83E10226C1043206401204F
:1018700084F83C1070BD00002DE9F0410546006879
:101880001E46144601F47F0201338FB242D0DDF8C8
:101890001880B2F5803F40F0878040693840C01B17
:1018A000B0FA80F04009A04240F0C8804EB924E070
:1018B00040693840C01BB0FA80F04009A04240F0B7
:1018C000BD80FEF7F9FEA0EB08012868B142EFD910
:1018D00041693940C91BB1FA81F14909A142E7D1F7
:1018E0009BE000BF40693840C01BB0FA80F040095F
:1018F000A0424FF0000040F0A280FEF7DDFE286815
:1019000041693940C91BB1FA81F14909A142E9D1C4
:1019100083E000BFB2F5803F24D100BF4169394068
:10192000C91BB1FA81F14909A14240F087804169A0
:101930003940C91BB1FA81F14909A14240F07E80CA
:1019400041693940C91BB1FA81F14909A14275D1F8
:1019500041693940C91BB1FA81F14909A142DDD081
:101960006CE000BF81693940C91BB1FA81F14909B6
:10197000A14263D181693940C91BB1FA81F149099A
:10198000A1425BD181693940C91BB1FA81F1490992
:10199000A14253D181693940C91BB1FA81F149098A
:1019A000A142DFD04AE000BF80693840C01BB0FAD6
:1019B00080F04009A04241D146B923E08069384017
:1019C000C01BB0FA80F04009A04237D1FEF774FE88
:1019D000A0EB08012868B142F0D981693940C91BE0
:1019E000B1FA81F14909A142E8D116E08069384095
:1019F000C01BB0FA80F04009A0424FF0000018BFB1
:101A0000BDE8F081FEF758FE286881693940C91B9E
:101A1000B1FA81F14909A142E8D1002020212863CF
:101A200085F83D1085F83E00296C41F020012964BD
:101A300085F83C000120BDE8F08100BF0020BDE832
:101A4000F0810000F0B581B0044600681D4643698E
:101A50008FB203EA0701B94202D1002001B0F0BD04
:101A60004169164601323FD049053FD4CEB100BF8F
:101A7000FEF722FE411B2068B14203D9416939407B
:101A8000B94215D141693940B942E6D041694905A9
:101A9000EED52BE041693940B942DED041694905B4
:101AA00024D4FEF709FE206841693940B942F1D0DB
:101AB000202023E041693940B942CED0416949052F
:101AC00014D441693940B942C7D0416949050DD4A0
:101AD00041693940B942C0D04169490506D44169DC
:101AE0003940B942B9D041694905E3D5016841F4AB
:101AF000007101606FF480614161042000212022A7
:101B0000216384F83D2084F83E10226C1043206449
:101B100084F83C10012001B0F0BD000070B50368EE
:101B2000044653F8140F000611D40E46481C29D061
:101B300086BB00BF1868400527D4FEF7BDFD2368AB
:101B400053F8140F000637D518680006F2D50020A8
:101B500070BD00BF18680006F9D41868400514D499
:101B600018680006F3D4186840050ED418680006FB
:101B7000EDD41868400508D4186800064FF000003E
:101B800048BF70BD18684005E4D56FF480601860E8
:101B9000042012E0154603E053F8140F0006D6D4D3
:101BA00018684005F1D4FEF787FD401B2368B0425A
:101BB000F2D958690006EFD42020002120222163A9
:101BC00084F83D2084F83E10226C104320640120EC
:101BD00084F83C1070BD0000FEE70000FEE7000046
:101BE0007047000070470000FEF73EBF70470000DE
:101BF00040F28C00C2F20000FFF7DCBCFEE7000000
:101C000080B582B040F60C00C1F61C00019040F295
:101C1000D4004FF0640CC2F2000001AA4E2104234C
:101C2000CDF800C0FEF700FE02B080BD80B582B0E6
:101C300001F1400363F07F036FF07F02012808BFCA
:101C400081EA020323F00F00190100F10C020830B1
:101C50008DF8050001F10C008DF8060001F1080077
:101C60008DF8070040F2D4008DF804204FF0640C8A
:101C7000C2F2000001AA4E210423CDF800C0FEF7F5
:101C8000D3FD02B080BD0000B0B582B043F63C0089
:101C900040F2D404C3F63C00C2F200040190642573
:101CA00001AA20464E2104230095FEF7BDFD43F610
:101CB0003C00C2F62C00019001AA20464E210423CC
:101CC0000095FEF7B1FD3220FEF7D4FB42F62C0062
:101CD000C8F68C00019001AA20464E2104230095ED
:101CE000FEF7A2FD3220FEF7C5FB40F60C00C1F660
:101CF0001C00019001AA20464E2104230095FEF706
:101D000093FD3220FEF7B6FB40F60C00C6F66C00E1
:101D1000019001AA20464E2104230095FEF784FD80
:101D20003220FEF7A7FB40F60C00CCF6CC00019069
:101D300001AA20464E2104230095FEF775FD3220AE
:101D4000FEF798FB40F60C00C2F62C00019001AAA9
:101D500020464E2104230095FEF766FD3220FEF753
:101D600089FB48F68C00C0F60C00019001AA2046C1
:101D70004E2104230095FEF757FD02B0B0BD0000D0
:101D80000178002908BF7047F0B583B040F2D40451
:101D9000461E6427C2F2000402AD00BF21F00F000E
:101DA000090100F10D0209308DF8090001F10D0063
:101DB0008DF80A0001F109008DF808208DF80B005C
:101DC00020464E212A4604230097FEF72DFDB178C8
:101DD00001360029E2D103B0BDE8F04070470000B1
:101DE00090B0FEF74FFE00240120CDE90B44CDE971
:101DF000094406900A904FF4E0104FF48031022518
:101E00000F9006A8CDE90714CDE90D51FEF7D8FFD4
:101E100020B1EFF3108072B6FEE700BF0F20CDE9CE
:101E200000054FF48060CDE9030468460221029466
:101E3000FEF7D0FE20B1EFF3108072B6FEE700BFD0
:101E400041F21800C4F20200016841F2000441F0BE
:101E5000100101600168C4F2010401F01001069153
:101E600006990168002241F02001016001684FF4E9
:101E7000005601F02001069106990168002541F005
:101E800004010160016801F00401069106990168EE
:101E900041F00801016000684FF4005100F00800B3
:101EA000069006982046FEF701FC0120CDE90705C3
:101EB0000220099006A920460696FEF7EFFA40F2A6
:101EC000D400A4F53C41C2F2000048F2A0624FF4F5
:101ED0008043C0F2010280E82600C0E90353C0E954
:101EE0000555C0E90755FEF7EDFB28B1EFF310806B
:101EF00072B600BFFEE700BF40F27004C2F20004F9
:101F00004FF08041204640F81C1F41F61F4142F22D
:101F10000F720995CDE90755CDE90055C0E90115C6
:101F2000C0E903258561FFF7A5F928B1EFF310801B
:101F300072B600BFFEE700BF4FF480501C3406901D
:101F400006A92046FFF764FA20B1EFF3108072B6BD
:101F5000FEE700BF69462046FFF74CF920B1EFF3DA
:101F6000108072B6FEE700BFFFF78EFE2046FFF737
:101F700017FA00BFFEE700000000000000000102A9
:101F8000030406070809000000000102030401021F
:101F900002030405060708090A0B0C0D0E0F1010AA
:101FA000C01F0008000000201000000050010008C1
:101FB000D01F00081000002020070000700100085A
:101FC00001000000100000000024F40000000000E8
:04000005080000ED02
:00000001FF
